S02700004F6E2D64656D616E642054726166666963204C6967687420436F6E74726F6C2E73726563B2
S11300000C942A000C9497030C94BE030C94E503FF
S11300100C94FC080C9460080C9447000C94AE08F3
S11300200C94D5080C9439080C9487080C94120885
S11300300C9447000C9447000C9447000C94470020
S11300400C9447000C9447000C9447000C94470010
S11300500C94470011241FBECFE5D8E0DEBFCDBF0E
S113006010E0A0E6B0E0EAE1F7E102C005900D92ED
S1130070A237B107D9F720E0A2E7B0E001C01D9292
S1130080AC38B207E1F70E94D0010C948B0B0C94AE
S1130090000080918A0090918B00019690938B00D0
S11300A080938A0088B7816088BF0895809170002A
S11300B0833041F484E690E00E94940682E08093C9
S11300C0700008958230F1F462E770E084E690E015
S11300D00E943E078091720090917300853F914089
S11300E070F480917500813069F0809174008130E2
S11300F049F01092710081E080937500089583E0C7
S113010080937000089560E080E00E94990161E0AE
S113011080E00E94990162E080E00E94990160E021
S113012081E00E94990161E081E00E94990162E00E
S113013081E00E94990162E082E00E9499018AE6CE
S113014090E00E94960484E690E00E94960480E683
S113015090E00E94380308950F931F93CF93DF9389
S113016000E010E016C061E080E00E94C30161E09D
S113017081E00E94C301CAE6D0E049815A818881A6
S113018064EF71E00E94CA0488810E9463060F5FD5
S11301901F4F0A3011053CF3DF91CF911F910F914E
S11301A008958091750081116CC062E082E00E9424
S11301B0A70160E080E00E94A70161E080E00E9466
S11301C0B50162E080E00E94B50160E081E00E9438
S11301D0B50161E081E00E94B50162E081E00E9426
S11301E0A701CAE6D0E049815A81888168E873E1B1
S11301F00E94CA0488810E94630660E080E00E9435
S1130200B50162E081E00E94B50180917500811121
S1130210C8CF81E0809374000E94AC0060E080E06D
S11302200E94B50161E080E00E94B50162E080E0D7
S11302300E94A70160E081E00E94A70161E081E0E3
S11302400E94B50162E081E00E94B50149815A81B2
S1130250888168E873E10E94CA0488810E94630669
S113026062E080E00E94B50160E081E00E94B50197
S1130270109274000E94AC0080917500811191CF9E
S113028053C08091740081114FC062E082E00E94EB
S1130290B50160E080E00E94B50161E080E00E9469
S11302A0B50162E080E00E94B50160E081E00E9457
S11302B0B50161E081E00E94B50162E081E00E9445
S11302C0B5010E94AC0060E080E00E94B50161E0ED
S11302D080E00E94B50162E080E00E94A70160E036
S11302E081E00E94A70161E081E00E94B50162E023
S11302F081E00E94B50181E080937400CAE6D0E0F9
S113030049815A81888168E873E10E94CA0488811E
S11303100E94630662E080E00E94B50160E081E033
S11303200E94B5010E94AC001092750010927400F6
S113033038CF41E00E94D701813019F0823029F092
S113034002C081E0089580E0089582E0089541E0CC
S11303500E945A02813019F0823029F002C081E0F3
S1130360089580E0089582E0089540E00E945A02D2
S1130370813019F0823029F002C081E0089580E0D4
S1130380089582E008950E94DD02813019F08230E0
S113039029F002C081E0089580E0089582E0089584
S11303A00E9483000E94D10080E090E008956830AC
S11303B008F078C04130C1F5813091F028F08230E6
S11303C0D9F0833029F170C02AB381E090E002C0F3
S11303D0880F991F6A95E2F7822B8ABB80E0089503
S11303E027B381E090E002C0880F991F6A95E2F775
S11303F0822B87BB80E0089524B381E090E002C0A3
S1130400880F991F6A95E2F7822B84BB80E00895D8
S113041021B381E090E002C0880F991F6A95E2F74A
S1130420822B81BB80E00895411140C0813099F056
S113043028F08230E9F0833041F13AC02AB381E0F8
S113044090E002C0880F991F6A95E2F78095822395
S11304508ABB80E0089527B381E090E002C0880F52
S1130460991F6A95E2F78095822387BB80E00895FF
S113047024B381E090E002C0880F991F6A95E2F7E7
S11304808095822384BB80E0089521B381E090E0CD
S113049002C0880F991F6A95E2F78095822381BB79
S11304A080E0089582E0089581E0089583E008954E
S11304B081E00895683008F078C04130C1F581309A
S11304C091F028F08230D9F0833029F170C02BB339
S11304D081E090E002C0880F991F6A95E2F7822BB1
S11304E08BBB80E0089528B381E090E002C0880FC0
S11304F0991F6A95E2F7822B88BB80E0089525B3A3
S113050081E090E002C0880F991F6A95E2F7822B80
S113051085BB80E0089522B381E090E002C0880F9B
S1130520991F6A95E2F7822B82BB80E008954111FE
S113053040C0813099F028F08230E9F0833041F1F5
S11305403AC02BB381E090E002C0880F991F6A95EE
S1130550E2F7809582238BBB80E0089528B381E085
S113056090E002C0880F991F6A95E2F78095822374
S113057088BB80E0089525B381E090E002C0880F35
S1130580991F6A95E2F78095822385BB80E00895E0
S113059022B381E090E002C0880F991F6A95E2F7C8
S11305A08095822382BB80E0089582E0089581E0F3
S11305B0089584E0089581E008956830C0F581309D
S11305C091F028F08230D9F0833029F132C02BB376
S11305D081E090E002C0880F991F6A95E2F78227B4
S11305E08BBB80E0089528B381E090E002C0880FBF
S11305F0991F6A95E2F7822788BB80E0089525B3A6
S113060081E090E002C0880F991F6A95E2F7822783
S113061085BB80E0089522B381E090E002C0880F9A
S1130620991F6A95E2F7822782BB80E0089582E0F1
S1130630089581E00895FC019081913059F018F0FB
S1130640923079F008958281938190937B00809316
S11306507A00089582819381909379008093780041
S11306600895828193819093770080937600089512
S11306707894FC012081213009F118F02230D9F15D
S11306804EC02BB720642BBFFC012181213051F0D7
S113069028F0223059F0233069F043C025B72C7F6D
S11306A025BF39C025B7216025BF35C025B72260D5
S11306B025BF31C025B7236025BF2DC02BB72068C7
S11306C02BBFFC012181213051F028F0223059F058
S11306D0233069F028C025B7237F25BF1CC025B768
S11306E0246025BF18C025B7286025BF14C025B7CE
S11306F02C6025BF10C02BB720622BBFFC012181C9
S1130700223031F0233089F424B7206424BF03C09D
S113071024B72F7B24BF0E941B0380E0089581E04F
S1130720089582E0089582E0089582E008951F927A
S11307300F920FB60F9211242F933F934F935F9311
S11307406F937F938F939F93AF93BF93EF93FF9395
S1130750E0917A00F0917B000995FF91EF91BF91B0
S1130760AF919F918F917F916F915F914F913F9145
S11307702F910F900FBE0F901F9018951F920F92FC
S11307800FB60F9211242F933F934F935F936F9360
S11307907F938F939F93AF93BF93EF93FF93E091D6
S11307A07800F09179000995FF91EF91BF91AF9195
S11307B09F918F917F916F915F914F913F912F9175
S11307C00F900FBE0F901F9018951F920F920FB6A7
S11307D00F9211242F933F934F935F936F937F93C3
S11307E08F939F93AF93BF93EF93FF93E091760022
S11307F0F09177000995FF91EF91BF91AF919F918F
S11308008F917F916F915F914F913F912F910F90B5
S11308100FBE0F901F901895FC019081913059F0F4
S113082018F0923079F0089584819581909389002D
S113083080938800089584819581909387008093A4
S11308408600089584819581909385008093840027
S11308500895FC019081913059F018F0923099F08C
S113086008958481958190938300809382000895F4
S113087084819581909381008093800090937F0080
S113088080937E0008958481958190937D00809368
S11308907C000895813031F018F0823031F00895F1
S11308A062BF08957DBD6CBD089564BD0895811136
S11308B004C089B7816089BF0895813021F489B764
S11308C0826089BF089589B78E7F89BF89B78D7F7C
S11308D089BF0895811104C089B7846089BF0895D0
S11308E0813039F489B7886089BF89B7806189BF4D
S11308F0089589B78B7F89BF89B7877F89BF89B7F7
S11309008F7E89BF0895811104C089B7806489BF2F
S11309100895813021F489B7806889BF089589B723
S11309208F7B89BF89B78F7789BF0895CF93DF9372
S1130930EC018B81811105C07894CE010E940C04D6
S113094009C0813029F47894CE010E94290402C0A0
S11309508230D1F48881813051F018F0823071F006
S113096015C013BE8B810E94570480E010C01FBCC9
S11309701EBC8B810E946A0480E009C015BC8B8177
S11309800E94830480E003C083E001C081E0DF9122
S1130990CF9108953F924F925F926F927F928F9280
S11309A09F92AF92BF92CF92DF92EF92FF920F93FA
S11309B01F93CF93DF934034510591F040F44130BD
S11309C0510571F04830510509F066C109C041155F
S11309D091E0590729F0411594E0590709F05CC1E9
S11309E08A01EB01382EBA0180E090E00E944F0AA0
S11309F020E030E04AE754E40E941E0B20E034E299
S1130A0044E759E40E94A7096B017C0181E08093CB
S1130A1071003816C1F1381618F082E038123EC160
S1130A2020E030E040E853E4C701B6010E941E0B09
S1130A302B013C01BE0180E090E00E944F0A4B0173
S1130A405C01A30192010E94A7090E9490090E94DF
S1130A50200AEB0180E090E00E944F0AA701960172
S1130A600E941E0B9B01AC01C501B4010E94A709A1
S1130A709B01AC0160E070E080E893E40E942309EC
S1130A800E94190A32C020E030E040E857E4C70170
S1130A90B6010E941E0B2B013C01BE0180E090E0D8
S1130AA00E944F0A4B015C01A30192010E94A70915
S1130AB00E9490090E94200AEB0180E090E00E94CD
S1130AC04F0AA70196010E941E0B9B01AC01C501B0
S1130AD0B4010E94A7099B01AC0160E070E080E8CA
S1130AE097E40E9423090E94190A832D0E944A0454
S1130AF091E0391609F44AC0391628F082E0381614
S1130B0009F487C0CDC000341105D1F038F40130A8
S1130B10110561F00830110569F00FC0011591E06D
S1130B201907A9F001151440B1F007C083B781601B
S1130B3083BF03C083B7826083BF20E030E021C05D
S1130B4083B7816083BF83B7826083BFF6CF83B7E7
S1130B50846083BFF2CF83B7816083BF83B784602F
S1130B6083BFEBCF08B600FC04C0809171008111F3
S1130B70F9CF88B7816088BF81E0809371002F5FCF
S1130B803F4F2C173D0770F380E08BC000341105F4
S1130B90D1F038F40130110561F00830110569F025
S1130BA00FC0011591E01907A9F001151440B1F027
S1130BB007C08EB581608EBD03C08EB582608EBDC8
S1130BC020E030E021C08EB581608EBD8EB582609C
S1130BD08EBDF6CF8EB584608EBDF2CF8EB58160AA
S1130BE08EBD8EB584608EBDEBCF08B602FC04C00A
S1130BF0809171008111F9CF88B7846088BF81E04A
S1130C00809371002F5F3F4F2C173D0770F380E0F6
S1130C1048C000341105D1F038F40130110561F0F9
S1130C200830110569F00FC0011591E01907A9F00A
S1130C3001151440B1F007C085B5816085BD03C0BE
S1130C4085B5826085BD20E030E021C085B5816036
S1130C5085BD85B5826085BDF6CF85B5846085BDCB
S1130C60F2CF85B5816085BD85B5846085BDEBCF48
S1130C7008B606FC04C0809171008111F9CF88B7D1
S1130C80806488BF81E0809371002F5F3F4F2C17F1
S1130C903D0770F380E005C082E003C081E001C03D
S1130CA081E0DF91CF911F910F91FF90EF90DF9042
S1130CB0CF90BF90AF909F908F907F906F905F90F8
S1130CC04F903F900895813041F018F0823059F0F0
S1130CD00EC013BE12BE80E008951FBC1EBC1DBC16
S1130CE01CBC80E0089515BC14BC80E0089581E02C
S1130CF00895833098F4813039F018F0823059F037
S1130D0010C082B790E008958DB590E02CB5982F6F
S1130D108827822B089584B590E0089580E090E0C0
S1130D20089580E090E00895FC0190819130C1F134
S1130D3020F0923009F467C099C081819281803497
S1130D409105C9F030F48130910559F0089771F09C
S1130D508FC0811521E09207B1F081159440C1F054
S1130D6087C083B7816083BF80E0089583B78260C2
S1130D7083BF80E0089583B7816083BF83B78260B7
S1130D8083BF80E0089583B7846083BF80E00895C3
S1130D9083B7816083BF83B7846083BF80E0089595
S1130DA08181928180349105C9F030F481309105BC
S1130DB059F0089771F05EC0811521E09207B1F0F7
S1130DC081159440C1F056C08EB581608EBD80E01F
S1130DD008958EB582608EBD80E008958EB58160E1
S1130DE08EBD8EB582608EBD80E008958EB5846020
S1130DF08EBD80E008958EB581608EBD8EB5846011
S1130E008EBD80E008958181928180349105C9F07E
S1130E1030F48130910559F0089771F02DC0811597
S1130E2021E09207B1F081159440C1F025C085B549
S1130E30816085BD80E0089585B5826085BD80E0D0
S1130E40089585B5816085BD85B5826085BD80E0E6
S1130E50089585B5846085BD80E0089585B5816079
S1130E6085BD85B5846085BD80E0089581E00895E1
S1130E7082E0089582E0089582E008954F925F929F
S1130E806F927F928F929F92AF92BF92EF92FF9256
S1130E900F931F93CF93DF93EC017B0188810E9412
S1130EA079068C0169817A8180E090E00E944F0A82
S1130EB020E030E04AE754E40E941E0B20E034E2D4
S1130EC044E759E40E94A7094B015C018881813001
S1130ED0A1F120F0823009F461C094C013BE12BEA7
S1130EE020E030E040E853E4C501B4010E941E0B49
S1130EF02B013C0160918A0070918B0080E090E0AE
S1130F000E944F0AA30192010E941E0B2B013C0177
S1130F10B80180E090E00E944F0AA50194010E946C
S1130F201E0B9B01AC01C301B2010E9424090E9463
S1130F30200AF701718360835FC01FBC1EBC1DBC07
S1130F401CBC20E030E040E857E4C501B4010E9435
S1130F501E0B2B013C0160918A0070918B0080E094
S1130F6090E00E944F0AA30192010E941E0B2B01E4
S1130F703C01B80180E090E00E944F0AA501940171
S1130F800E941E0B9B01AC01C301B2010E94240903
S1130F900E94200AF701718360832EC015BC14BC23
S1130FA020E030E040E853E4C501B4010E941E0B88
S1130FB02B013C0160918A0070918B0080E090E0ED
S1130FC00E944F0AA30192010E941E0B2B013C01B7
S1130FD0B80180E090E00E944F0AA50194010E94AC
S1130FE01E0B9B01AC01C301B2010E9424090E94A3
S1130FF0200AF7017183608310928B0010928A009B
S113100080E001C081E0DF91CF911F910F91FF90AB
S1131010EF90BF90AF909F908F907F906F905F9074
S11310204F9008951F920F920FB60F9211242F9391
S11310303F934F935F936F937F938F939F93AF935C
S1131040BF93EF93FF93E0918800F0918900099595
S1131050FF91EF91BF91AF919F918F917F916F918C
S11310605F914F913F912F910F900FBE0F901F9062
S113107018951F920F920FB60F9211242F933F933E
S11310804F935F936F937F938F939F93AF93BF938C
S1131090EF93FF93E0918600F09187000995FF910B
S11310A0EF91BF91AF919F918F917F916F915F91DC
S11310B04F913F912F910F900FBE0F901F90189555
S11310C01F920F920FB60F9211242F933F934F93B9
S11310D05F936F937F938F939F93AF93BF93EF939C
S11310E0FF93E0918400F09185000995FF91EF91C1
S11310F0BF91AF919F918F917F916F915F914F912C
S11311003F912F910F900FBE0F901F9018951F9233
S11311100F920FB60F9211242F933F934F935F9327
S11311206F937F938F939F93AF93BF93EF93FF93AB
S1131130E0918200F09183000995FF91EF91BF91B6
S1131140AF919F918F917F916F915F914F913F915B
S11311502F910F900FBE0F901F9018951F920F9212
S11311600FB60F9211242F933F934F935F936F9376
S11311707F938F939F93AF93BF93EF93FF93E091EC
S11311808000F09181000995FF91EF91BF91AF919B
S11311909F918F917F916F915F914F913F912F918B
S11311A00F900FBE0F901F9018951F920F920FB6BD
S11311B00F9211242F933F934F935F936F937F93D9
S11311C08F939F93AF93BF93EF93FF93E0917E0030
S11311D0F0917F000995FF91EF91BF91AF919F919D
S11311E08F917F916F915F914F913F912F910F90CC
S11311F00FBE0F901F9018951F920F920FB60F926B
S113120011242F933F934F935F936F937F938F9307
S11312109F93AF93BF93EF93FF93E0917C00F09182
S11312207D000995FF91EF91BF91AF919F918F91AF
S11312307F916F915F914F913F912F910F900FBECE
S11312400F901F9018955058BB27AA270E943B095E
S11312500C94CC0A0E94BE0A38F00E94C50A20F001
S113126039F49F3F19F426F40C94BB0A0EF4E0956C
S1131270E7FB0C948C0AE92F0E94DD0A58F3BA1795
S1131280620773078407950720F079F4A6F50C9498
S1131290170B0EF4E0950B2EBA2FA02D0B01B901FC
S11312A090010C01CA01A0011124FF27591B99F0D8
S11312B0593F50F4503E68F11A16F040A22F232FE4
S11312C0342F4427585FF3CF469537952795A79534
S11312D0F0405395C9F77EF41F16BA0B620B730BDB
S11312E0840BBAF09150A1F0FF0FBB1F661F771F4C
S11312F0881FC2F70EC0BA0F621F731F841F48F401
S1131300879577956795B795F7959E3F08F0B0CF89
S11313109395880F08F09927EE0F97958795089570
S11313200E94FF0A90F09F3748F4911116F40C9430
S1131330180B60E070E080E89FE3089526F01B1628
S1131340611D711D811D0C94920A0C94AD0A0E94BA
S1131350BB090C94CC0A0E94C50A58F00E94BE0A2C
S113136040F029F45F3F29F00C948C0A51110C943D
S1131370180B0C94BB0A0E94DD0A68F39923B1F39D
S1131380552391F3951B550BBB27AA2762177307A7
S1131390840738F09F5F5F4F220F331F441FAA1F3B
S11313A0A9F335D00E2E3AF0E0E832D091505040F7
S11313B0E695001CCAF72BD0FE2F29D0660F771FA5
S11313C0881FBB1F261737074807AB07B0E809F08B
S11313D0BB0B802DBF01FF2793585F4F3AF09E3F10
S11313E0510578F00C948C0A0C94180B5F3FE4F3CD
S11313F0983ED4F3869577956795B795F7959F5F53
S1131400C9F7880F911D9695879597F90895E1E09E
S1131410660F771F881FBB1F621773078407BA07FD
S113142020F0621B730B840BBA0BEE1F88F7E09558
S113143008950E94200A6894B1110C94180B089521
S11314400E94E50A88F09F5798F0B92F9927B75161
S1131450B0F0E1F0660F771F881F991F1AF0BA9554
S1131460C9F714C0B13091F00E94170BB1E0089590
S11314700C94170B672F782F8827B85F39F0B93F82
S1131480CCF3869577956795B395D9F73EF4909507
S11314908095709561957F4F8F4F9F4F0895E89485
S11314A009C097FB3EF490958095709561957F4FA8
S11314B08F4F9F4F9923A9F0F92F96E9BB27939556
S11314C0F695879577956795B795F111F8CFFAF466
S11314D0BB0F11F460FF1BC06F5F7F4F8F4F9F4F97
S11314E016C0882311F096E911C0772321F09EE8F5
S11314F0872F762F05C0662371F096E8862F70E05B
S113150060E02AF09A95660F771F881FDAF7880F34
S11315109695879597F9089597F99F6780E870E005
S113152060E00895882371F4772321F09850872B85
S1131530762F07C0662311F499270DC09051862B8E
S113154070E060E02AF09A95660F771F881FDAF73B
S1131550880F9695879597F908959F3F31F091509C
S113156020F4879577956795B795880F911D969583
S1131570879597F908959FEF80EC089500240A94C5
S11315801616170618060906089500240A9412165A
S11315901306140605060895092E0394000C11F48D
S11315A0882352F0BB0F40F4BF2B11F460FF04C03A
S11315B06F5F7F4F8F4F9F4F089557FD9058440F93
S11315C0551F59F05F3F71F04795880F97FB991F9E
S11315D061F09F3F79F0879508951216130614065B
S11315E0551FF2CF4695F1DF08C0161617061806E8
S11315F0991FF1CF869571056105089408950E949D
S1131600E50AA0F0BEE7B91788F4BB279F3860F459
S11316101616B11D672F782F8827985FF7CF869508
S113162077956795B11D93959639C8F30895E89415
S1131630BB2766277727CB0197F908950E94310BC2
S11316400C94CC0A0E94BE0A38F00E94C50A20F00D
S1131650952311F00C948C0A0C94BB0A11240C945D
S1131660180B0E94DD0A70F3959FC1F3950F50E0AB
S1131670551F629FF001729FBB27F00DB11D639F40
S1131680AA27F00DB11DAA1F649F6627B00DA11DE6
S1131690661F829F2227B00DA11D621F739FB00D8C
S11316A0A11D621F839FA00D611D221F749F3327FC
S11316B0A00D611D231F849F600D211D822F762F95
S11316C06A2F11249F5750409AF0F1F088234AF072
S11316D0EE0FFF1FBB1F661F771F881F91505040DE
S11316E0A9F79E3F510580F00C948C0A0C94180BBA
S11316F05F3FE4F3983ED4F3869577956795B79565
S1131700F795E7959F5FC1F7FE2B880F911D96957E
S10D1710879597F90895F894FFCF28
S113171A0001560000000400490001000402000010
S105172A0301B5
S9030000FC
