:100000000C942A000C943E030C9465030C948C030E
:100010000C94F2060C9456060C9447000C94A4061B
:100020000C94CB060C942F060C947D060C940806B9
:100030000C9447000C9447000C9447000C94470024
:100040000C9447000C9447000C9447000C94470014
:100050000C94470011241FBECFE5D8E0DEBFCDBF12
:1000600010E0A0E6B0E0E6E0F3E102C005900D92FA
:10007000AC36B107D9F720E0ACE6B0E001C01D9284
:10008000A238B207E1F70E9494010C9481090C9404
:10009000000080916D00813049F080916C008130CA
:1000A00029F010926A0081E080936D00089560E06D
:1000B00080E00E945D0161E080E00E945D0162E0FD
:1000C00080E00E945D0160E081E00E945D0161E0EE
:1000D00081E00E945D0162E081E00E945D0162E0DA
:1000E00082E00E945D0184E690E00E943D0480E68B
:1000F00090E00E94E8020895CF93DF93C0E0D0E043
:1001000013C061E080E00E94870161E081E00E940D
:10011000870140E054E064EF71E081E00E946904EF
:1001200081E00E94F5052196CA30D10554F3DF9194
:10013000CF91089580916D0081116AC062E082E0E4
:100140000E946B0160E080E00E946B0161E080E052
:100150000E94790162E080E00E94790160E081E024
:100160000E94790161E081E00E94790162E081E012
:100170000E946B0140E054E068E873E181E00E9476
:10018000690481E00E94F50560E080E00E94790149
:1001900062E081E00E94790180916D008111CACFF7
:1001A00081E080936C000E947C0060E080E00E940F
:1001B000790161E080E00E94790162E080E00E94C4
:1001C0006B0160E081E00E946B0161E081E00E94D0
:1001D000790162E081E00E94790140E054E068E842
:1001E00073E181E00E94690481E00E94F50562E00C
:1001F00080E00E94790160E081E00E947901109224
:100200006C000E947C0080916D00811193CF50C0E2
:1002100080916C0081114CC062E082E00E94790103
:1002200060E080E00E94790161E080E00E94790155
:1002300062E080E00E94790160E081E00E94790143
:1002400061E081E00E94790162E081E00E94790131
:100250000E947C0060E080E00E94790161E080E023
:100260000E94790162E080E00E946B0160E081E021
:100270000E946B0161E081E00E94790162E081E00F
:100280000E94790181E080936C0040E054E068E8CE
:1002900073E10E94690481E00E94F50562E080E05C
:1002A0000E94790160E081E00E9479010E947C0057
:1002B00010926D0010926C003DCF41E00E949B01B6
:1002C000813019F0823029F002C081E0089580E089
:1002D000089582E0089541E00E941602813019F0ED
:1002E000823029F002C081E0089580E0089582E024
:1002F000089540E00E941602813019F0823029F002
:1003000002C081E0089580E0089582E008950E948F
:100310009102813019F0823029F002C081E0089505
:1003200080E0089582E008950E9457000E949A009C
:1003300080E090E00895683008F070C04130A1F589
:10034000813089F028F08230C9F0833011F168C023
:100350002AB381E090E002C0880F991F6A95E2F706
:10036000822B8ABB5AC027B381E090E002C0880F7D
:10037000991F6A95E2F7822B87BB4FC024B381E0B7
:1003800090E002C0880F991F6A95E2F7822B84BB28
:1003900044C021B381E090E002C0880F991F6A95A4
:1003A000E2F7822B81BB39C041113CC0813091F012
:1003B00028F08230D9F0833029F136C02AB381E0A9
:1003C00090E002C0880F991F6A95E2F7809582231A
:1003D0008ABB23C027B381E090E002C0880F991F39
:1003E0006A95E2F78095822387BB17C024B381E02A
:1003F00090E002C0880F991F6A95E2F780958223EA
:1004000084BB0BC021B381E090E002C0880F991F2C
:100410006A95E2F78095822381BB089582E0089572
:1004200081E0089583E0089581E00895683008F040
:1004300070C04130A1F5813089F028F08230C9F0D8
:10044000833011F168C02BB381E090E002C0880FC7
:10045000991F6A95E2F7822B8BBB5AC028B381E0C3
:1004600090E002C0880F991F6A95E2F7822B88BB43
:100470004FC025B381E090E002C0880F991F6A95B4
:10048000E2F7822B85BB44C022B381E090E002C03A
:10049000880F991F6A95E2F7822B82BB39C0411100
:1004A0003CC0813091F028F08230D9F0833029F1BE
:1004B00036C02BB381E090E002C0880F991F6A9587
:1004C000E2F7809582238BBB23C028B381E090E0C4
:1004D00002C0880F991F6A95E2F78095822388BB36
:1004E00017C025B381E090E002C0880F991F6A957C
:1004F000E2F78095822385BB0BC022B381E090E0B8
:1005000002C0880F991F6A95E2F78095822382BB0B
:10051000089582E0089581E0089584E0089581E0DF
:1005200008956830A0F5813089F028F08230C9F054
:10053000833011F12EC02BB381E090E002C0880F10
:10054000991F6A95E2F782278BBB20C028B381E010
:1005500090E002C0880F991F6A95E2F7822788BB56
:1005600015C025B381E090E002C0880F991F6A95FD
:10057000E2F7822785BB0AC022B381E090E002C087
:10058000880F991F6A95E2F7822782BB089582E05F
:10059000089581E00895FC019081913059F018F0A0
:1005A000923079F0089582819381909373008093C3
:1005B00072000895828193819093710080937000FE
:1005C00008958281938190936F0080936E000895C7
:1005D0007894FC012081213009F118F02230D9F102
:1005E0004AC02BB720642BBFFC012181213051F080
:1005F00028F0223059F0233069F03DC025B72C7F18
:1006000025BF39C025B7216025BF35C025B7226079
:1006100025BF31C025B7236025BF2DC02BB720686B
:100620002BBFFC012181213051F028F0223059F0FC
:10063000233069F020C025B7237F25BF1CC025B714
:10064000246025BF18C025B7286025BF14C025B772
:100650002C6025BF10C02BB720622BBFFC0121816D
:10066000223031F0233039F424B7206424BF03C092
:1006700024B72F7B24BF0E94CB0208951F920F92B4
:100680000FB60F9211242F933F934F935F936F9365
:100690007F938F939F93AF93BF93EF93FF93E091DB
:1006A0007200F09173000995FF91EF91BF91AF91A6
:1006B0009F918F917F916F915F914F913F912F917A
:1006C0000F900FBE0F901F9018951F920F920FB6AC
:1006D0000F9211242F933F934F935F936F937F93C8
:1006E0008F939F93AF93BF93EF93FF93E09170002D
:1006F000F09171000995FF91EF91BF91AF919F919A
:100700008F917F916F915F914F913F912F910F90BA
:100710000FBE0F901F9018951F920F920FB60F9259
:1007200011242F933F934F935F936F937F938F93F6
:100730009F93AF93BF93EF93FF93E0916E00F0917F
:100740006F000995FF91EF91BF91AF919F918F91AC
:100750007F916F915F914F913F912F910F900FBEBD
:100760000F901F901895FC019081913059F018F06E
:10077000923079F0089584819581909381008093DF
:10078000800008958481958190937F0080937E00FE
:1007900008958481958190937D0080937C000895D5
:1007A000FC019081913059F018F0923099F0089541
:1007B0008481958190937B0080937A000895848151
:1007C000958190937900809378009093770080933F
:1007D00076000895848195819093750080937400CC
:1007E0000895813031F018F0823031F0089562BF01
:1007F00008957DBD6CBD089564BD0895811104C048
:1008000089B7816089BF0895813021F489B78260FA
:1008100089BF089589B78E7F89BF89B78D7F89BFCA
:100820000895811104C089B7846089BF089581301B
:1008300039F489B7886089BF89B7806189BF089515
:1008400089B78B7F89BF89B7877F89BF89B78F7E3B
:1008500089BF0895811104C089B7806489BF089554
:10086000813021F489B7806889BF089589B78F7B6B
:1008700089BF89B78F7789BF0895CF93DF93EC0144
:100880008B81811105C07894CE010E94B30306C00C
:10089000813021F47894CE010E94D0038881833086
:1008A000A8F4813049F018F0823061F00FC013BE17
:1008B0008B810E94FE030AC01FBC1EBC8B810E945C
:1008C000110404C015BC8B810E942A04DF91CF91D2
:1008D00008953F924F925F926F927F928F929F9274
:1008E000AF92BF92CF92DF92EF92FF920F931F933E
:1008F000CF93DF93382E8B01EA014034510589F004
:1009000038F44130510569F04830510541F409C0CF
:10091000411581E0580729F04115544011F0C1E01C
:10092000D0E0BE0180E090E00E94450820E030E089
:100930004AE754E40E94140920E034E244E759E411
:100940000E949D076B017C0181E080936A0038164C
:10095000C1F1381618F082E0381235C120E030E0DD
:1009600040E853E4C701B6010E9414092B013C0181
:10097000B80180E090E00E9445084B015C01A301B2
:1009800092010E949D070E9486070E9416088B0113
:1009900080E090E00E944508A70196010E9414099A
:1009A0009B01AC01C501B4010E949D079B01AC01F4
:1009B00060E070E080E893E40E9419070E940F084D
:1009C00032C020E030E040E857E4C701B6010E94A1
:1009D00014092B013C01B80180E090E00E94450819
:1009E0004B015C01A30192010E949D070E948607B2
:1009F0000E9416088B0180E090E00E944508A70144
:100A000096010E9414099B01AC01C501B4010E942A
:100A10009D079B01AC0160E070E080E897E40E94D4
:100A200019070E940F08832D0E94F10381E03816F8
:100A300009F448C0381628F082E0381609F483C05B
:100A4000C2C0C034D105B9F030F4C130D10559F07D
:100A5000289769F016C0C11581E0D807A9F0C11523
:100A6000D440B1F00EC083B7816083BF0AC083B7A2
:100A7000826083BF06C083B7816083BF83B7826013
:100A800083BF20E030E01AC083B7846083BFF9CF12
:100A900083B7816083BF83B7846083BFF2CF08B61A
:100AA00000FC04C080916A008111F9CF88B7816091
:100AB00088BF81E080936A002F5F3F4F2017310786
:100AC00070F381C0C034D105B9F030F4C130D10524
:100AD00059F0289769F016C0C11581E0D807A9F030
:100AE000C115D440B1F00EC08EB581608EBD0AC074
:100AF0008EB582608EBD06C08EB581608EBD8EB50E
:100B000082608EBD20E030E01AC08EB584608EBD5C
:100B1000F9CF8EB581608EBD8EB584608EBDF2CF6B
:100B200008B602FC04C080916A008111F9CF88B731
:100B3000846088BF81E080936A002F5F3F4F201759
:100B4000310770F340C0C034D105B9F030F4C13082
:100B5000D10559F0289769F016C0C11581E0D80772
:100B6000A9F0C115D440B1F00EC085B5816085BD36
:100B70000AC085B5826085BD06C085B5816085BD2A
:100B800085B5826085BD20E030E01AC085B58460FF
:100B900085BDF9CF85B5816085BD85B5846085BD8E
:100BA000F2CF08B606FC04C080916A008111F9CF2B
:100BB00088B7806488BF81E080936A002F5F3F4FD1
:100BC0002017310770F3DF91CF911F910F91FF90A4
:100BD000EF90DF90CF90BF90AF909F908F907F90DD
:100BE0006F905F904F903F900895833080F48130F4
:100BF00039F018F0823049F0089513BE12BE0895FE
:100C00001FBC1EBC1DBC1CBC089515BC14BC0895A3
:100C10001F920F920FB60F9211242F933F934F9371
:100C20005F936F937F938F939F93AF93BF93EF9354
:100C3000FF93E0918000F09181000995FF91EF9181
:100C4000BF91AF919F918F917F916F915F914F91E4
:100C50003F912F910F900FBE0F901F9018951F92EC
:100C60000F920FB60F9211242F933F934F935F93E0
:100C70006F937F938F939F93AF93BF93EF93FF9364
:100C8000E0917E00F0917F000995FF91EF91BF9177
:100C9000AF919F918F917F916F915F914F913F9114
:100CA0002F910F900FBE0F901F9018951F920F92CB
:100CB0000FB60F9211242F933F934F935F936F932F
:100CC0007F938F939F93AF93BF93EF93FF93E091A5
:100CD0007C00F0917D000995FF91EF91BF91AF915C
:100CE0009F918F917F916F915F914F913F912F9144
:100CF0000F900FBE0F901F9018951F920F920FB676
:100D00000F9211242F933F934F935F936F937F9391
:100D10008F939F93AF93BF93EF93FF93E0917A00EC
:100D2000F0917B000995FF91EF91BF91AF919F9159
:100D30008F917F916F915F914F913F912F910F9084
:100D40000FBE0F901F9018951F920F920FB60F9223
:100D500011242F933F934F935F936F937F938F93C0
:100D60009F93AF93BF93EF93FF93E0917800F0913F
:100D700079000995FF91EF91BF91AF919F918F916C
:100D80007F916F915F914F913F912F910F900FBE87
:100D90000F901F9018951F920F920FB60F9211246B
:100DA0002F933F934F935F936F937F938F939F9373
:100DB000AF93BF93EF93FF93E0917600F0917700AC
:100DC0000995FF91EF91BF91AF919F918F917F9185
:100DD0006F915F914F913F912F910F900FBE0F90A8
:100DE0001F9018951F920F920FB60F9211242F93F8
:100DF0003F934F935F936F937F938F939F93AF93A3
:100E0000BF93EF93FF93E0917400F0917500099503
:100E1000FF91EF91BF91AF919F918F917F916F91D2
:100E20005F914F913F912F910F900FBE0F901F90A8
:100E300018955058BB27AA270E9431070C94C20866
:100E40000E94B40838F00E94BB0820F039F49F3F9C
:100E500019F426F40C94B1080EF4E095E7FB0C9419
:100E60008208E92F0E94D30858F3BA176207730764
:100E70008407950720F079F4A6F50C940D090EF47B
:100E8000E0950B2EBA2FA02D0B01B90190010C019A
:100E9000CA01A0011124FF27591B99F0593F50F4B2
:100EA000503E68F11A16F040A22F232F342F44270A
:100EB000585FF3CF469537952795A795F040539502
:100EC000C9F77EF41F16BA0B620B730B840BBAF0D2
:100ED0009150A1F0FF0FBB1F661F771F881FC2F73D
:100EE0000EC0BA0F621F731F841F48F48795779551
:100EF0006795B795F7959E3F08F0B0CF9395880F0B
:100F000008F09927EE0F9795879508950E94F508A8
:100F100090F09F3748F4911116F40C940E0960E09C
:100F200070E080E89FE3089526F01B16611D711D97
:100F3000811D0C9488080C94A3080E94B1070C949E
:100F4000C2080E94BB0858F00E94B40840F029F47F
:100F50005F3F29F00C94820851110C940E090C94F7
:100F6000B1080E94D30868F39923B1F3552391F394
:100F7000951B550BBB27AA2762177307840738F008
:100F80009F5F5F4F220F331F441FAA1FA9F335D065
:100F90000E2E3AF0E0E832D091505040E695001C19
:100FA000CAF72BD0FE2F29D0660F771F881FBB1FD3
:100FB000261737074807AB07B0E809F0BB0B802DB1
:100FC000BF01FF2793585F4F3AF09E3F510578F0DD
:100FD0000C9482080C940E095F3FE4F3983ED4F31E
:100FE000869577956795B795F7959F5FC9F7880FB1
:100FF000911D9695879597F90895E1E0660F771F03
:10100000881FBB1F621773078407BA0720F0621B93
:10101000730B840BBA0BEE1F88F7E09508950E94BE
:1010200016086894B1110C940E0908950E94DB080B
:1010300088F09F5798F0B92F9927B751B0F0E1F099
:10104000660F771F881F991F1AF0BA95C9F714C049
:10105000B13091F00E940D09B1E008950C940D0992
:10106000672F782F8827B85F39F0B93FCCF3869582
:1010700077956795B395D9F73EF4909580957095DF
:1010800061957F4F8F4F9F4F0895E89409C097FB5C
:101090003EF490958095709561957F4F8F4F9F4F4F
:1010A0009923A9F0F92F96E9BB279395F695879593
:1010B00077956795B795F111F8CFFAF4BB0F11F456
:1010C00060FF1BC06F5F7F4F8F4F9F4F16C08823FD
:1010D00011F096E911C0772321F09EE8872F762F33
:1010E00005C0662371F096E8862F70E060E02AF074
:1010F0009A95660F771F881FDAF7880F9695879560
:1011000097F9089597F99F6780E870E060E0089587
:10111000882371F4772321F09850872B762F07C00E
:10112000662311F499270DC09051862B70E060E082
:101130002AF09A95660F771F881FDAF7880F969521
:10114000879597F908959F3F31F0915020F4879546
:1011500077956795B795880F911D9695879597F91F
:1011600008959FEF80EC089500240A941616170640
:1011700018060906089500240A9412161306140688
:1011800005060895092E0394000C11F4882352F0EB
:10119000BB0F40F4BF2B11F460FF04C06F5F7F4FA3
:1011A0008F4F9F4F089557FD9058440F551F59F08A
:1011B0005F3F71F04795880F97FB991F61F09F3F44
:1011C00079F087950895121613061406551FF2CF6D
:1011D0004695F1DF08C0161617061806991FF1CFBD
:1011E000869571056105089408950E94DB08A0F0BA
:1011F000BEE7B91788F4BB279F3860F41616B11DF7
:10120000672F782F8827985FF7CF86957795679512
:10121000B11D93959639C8F30895E894BB276627C6
:101220007727CB0197F908950E9427090C94C208EB
:101230000E94B40838F00E94BB0820F0952311F0FA
:101240000C9482080C94B10811240C940E090E948D
:10125000D30870F3959FC1F3950F50E0551F629F1F
:10126000F001729FBB27F00DB11D639FAA27F00DFF
:10127000B11DAA1F649F6627B00DA11D661F829F26
:101280002227B00DA11D621F739FB00DA11D621F0B
:10129000839FA00D611D221F749F3327A00D611D28
:1012A000231F849F600D211D822F762F6A2F11240A
:1012B0009F5750409AF0F1F088234AF0EE0FFF1F3D
:1012C000BB1F661F771F881F91505040A9F79E3F94
:1012D000510580F00C9482080C940E095F3FE4F3F2
:1012E000983ED4F3869577956795B795F795E795EA
:1012F0009F5FC1F7FE2B880F911D9695879597F9F3
:061300000895F894FFCFF0
:0C13060000034900010004030000010086
:00000001FF
